{
  "_format": "hh-sol-artifact-1",
  "contractName": "Create",
  "sourceName": "contracts/VotingContract.sol",
  "abi": [
    {
      "inputs": [],
      "stateMutability": "nonpayable",
      "type": "constructor"
    },
    {
      "anonymous": false,
      "inputs": [
        {
          "indexed": true,
          "internalType": "uint256",
          "name": "candidateId",
          "type": "uint256"
        },
        {
          "indexed": false,
          "internalType": "string",
          "name": "age",
          "type": "string"
        },
        {
          "indexed": false,
          "internalType": "string",
          "name": "name",
          "type": "string"
        },
        {
          "indexed": false,
          "internalType": "string",
          "name": "image",
          "type": "string"
        },
        {
          "indexed": false,
          "internalType": "uint256",
          "name": "voteCount",
          "type": "uint256"
        },
        {
          "indexed": false,
          "internalType": "address",
          "name": "candidateAddress",
          "type": "address"
        },
        {
          "indexed": false,
          "internalType": "string",
          "name": "ipfs",
          "type": "string"
        }
      ],
      "name": "CandidateCreate",
      "type": "event"
    },
    {
      "anonymous": false,
      "inputs": [
        {
          "indexed": true,
          "internalType": "uint256",
          "name": "voter_voterId",
          "type": "uint256"
        },
        {
          "indexed": false,
          "internalType": "string",
          "name": "voter_name",
          "type": "string"
        },
        {
          "indexed": false,
          "internalType": "string",
          "name": "voter_image",
          "type": "string"
        },
        {
          "indexed": false,
          "internalType": "address",
          "name": "voter_address",
          "type": "address"
        },
        {
          "indexed": false,
          "internalType": "uint256",
          "name": "voter_allowed",
          "type": "uint256"
        },
        {
          "indexed": false,
          "internalType": "bool",
          "name": "voter_voted",
          "type": "bool"
        },
        {
          "indexed": false,
          "internalType": "uint256",
          "name": "voter_vote",
          "type": "uint256"
        },
        {
          "indexed": false,
          "internalType": "string",
          "name": "voter_ipfs",
          "type": "string"
        }
      ],
      "name": "VoterCreated",
      "type": "event"
    },
    {
      "inputs": [],
      "name": "_candidateId",
      "outputs": [
        {
          "internalType": "uint256",
          "name": "_value",
          "type": "uint256"
        }
      ],
      "stateMutability": "view",
      "type": "function"
    },
    {
      "inputs": [],
      "name": "_voterId",
      "outputs": [
        {
          "internalType": "uint256",
          "name": "_value",
          "type": "uint256"
        }
      ],
      "stateMutability": "view",
      "type": "function"
    },
    {
      "inputs": [
        {
          "internalType": "uint256",
          "name": "",
          "type": "uint256"
        }
      ],
      "name": "candidateAddresses",
      "outputs": [
        {
          "internalType": "address",
          "name": "",
          "type": "address"
        }
      ],
      "stateMutability": "view",
      "type": "function"
    },
    {
      "inputs": [
        {
          "internalType": "uint256",
          "name": "",
          "type": "uint256"
        }
      ],
      "name": "candidates",
      "outputs": [
        {
          "internalType": "uint256",
          "name": "candidateId",
          "type": "uint256"
        },
        {
          "internalType": "string",
          "name": "age",
          "type": "string"
        },
        {
          "internalType": "string",
          "name": "name",
          "type": "string"
        },
        {
          "internalType": "string",
          "name": "image",
          "type": "string"
        },
        {
          "internalType": "uint256",
          "name": "voteCount",
          "type": "uint256"
        },
        {
          "internalType": "address",
          "name": "candidateAddress",
          "type": "address"
        },
        {
          "internalType": "string",
          "name": "ipfs",
          "type": "string"
        }
      ],
      "stateMutability": "view",
      "type": "function"
    },
    {
      "inputs": [],
      "name": "getCandidateAddresses",
      "outputs": [
        {
          "internalType": "address[]",
          "name": "",
          "type": "address[]"
        }
      ],
      "stateMutability": "view",
      "type": "function"
    },
    {
      "inputs": [
        {
          "internalType": "uint256",
          "name": "candidateId",
          "type": "uint256"
        }
      ],
      "name": "getCandidateData",
      "outputs": [
        {
          "internalType": "string",
          "name": "",
          "type": "string"
        },
        {
          "internalType": "string",
          "name": "",
          "type": "string"
        },
        {
          "internalType": "uint256",
          "name": "",
          "type": "uint256"
        },
        {
          "internalType": "string",
          "name": "",
          "type": "string"
        },
        {
          "internalType": "uint256",
          "name": "",
          "type": "uint256"
        },
        {
          "internalType": "string",
          "name": "",
          "type": "string"
        },
        {
          "internalType": "address",
          "name": "",
          "type": "address"
        }
      ],
      "stateMutability": "view",
      "type": "function"
    },
    {
      "inputs": [],
      "name": "getCandidateLength",
      "outputs": [
        {
          "internalType": "uint256",
          "name": "",
          "type": "uint256"
        }
      ],
      "stateMutability": "view",
      "type": "function"
    },
    {
      "inputs": [],
      "name": "getVotedVoterList",
      "outputs": [
        {
          "internalType": "address[]",
          "name": "",
          "type": "address[]"
        }
      ],
      "stateMutability": "view",
      "type": "function"
    },
    {
      "inputs": [
        {
          "internalType": "address",
          "name": "_address",
          "type": "address"
        }
      ],
      "name": "getVoterData",
      "outputs": [
        {
          "internalType": "uint256",
          "name": "",
          "type": "uint256"
        },
        {
          "internalType": "string",
          "name": "",
          "type": "string"
        },
        {
          "internalType": "string",
          "name": "",
          "type": "string"
        },
        {
          "internalType": "address",
          "name": "",
          "type": "address"
        },
        {
          "internalType": "string",
          "name": "",
          "type": "string"
        },
        {
          "internalType": "uint256",
          "name": "",
          "type": "uint256"
        },
        {
          "internalType": "bool",
          "name": "",
          "type": "bool"
        }
      ],
      "stateMutability": "view",
      "type": "function"
    },
    {
      "inputs": [],
      "name": "getVoterLength",
      "outputs": [
        {
          "internalType": "uint256",
          "name": "",
          "type": "uint256"
        }
      ],
      "stateMutability": "view",
      "type": "function"
    },
    {
      "inputs": [],
      "name": "getVoterList",
      "outputs": [
        {
          "internalType": "address[]",
          "name": "",
          "type": "address[]"
        }
      ],
      "stateMutability": "view",
      "type": "function"
    },
    {
      "inputs": [
        {
          "internalType": "address",
          "name": "_address",
          "type": "address"
        },
        {
          "internalType": "string",
          "name": "_age",
          "type": "string"
        },
        {
          "internalType": "string",
          "name": "_name",
          "type": "string"
        },
        {
          "internalType": "string",
          "name": "_image",
          "type": "string"
        },
        {
          "internalType": "string",
          "name": "_ipfs",
          "type": "string"
        }
      ],
      "name": "setCandidate",
      "outputs": [],
      "stateMutability": "nonpayable",
      "type": "function"
    },
    {
      "inputs": [
        {
          "internalType": "uint256",
          "name": "candidateId",
          "type": "uint256"
        }
      ],
      "name": "vote",
      "outputs": [],
      "stateMutability": "nonpayable",
      "type": "function"
    },
    {
      "inputs": [
        {
          "internalType": "uint256",
          "name": "",
          "type": "uint256"
        }
      ],
      "name": "votedVoters",
      "outputs": [
        {
          "internalType": "address",
          "name": "",
          "type": "address"
        }
      ],
      "stateMutability": "view",
      "type": "function"
    },
    {
      "inputs": [
        {
          "internalType": "address",
          "name": "_address",
          "type": "address"
        },
        {
          "internalType": "string",
          "name": "_name",
          "type": "string"
        },
        {
          "internalType": "string",
          "name": "_image",
          "type": "string"
        },
        {
          "internalType": "string",
          "name": "_ipfs",
          "type": "string"
        }
      ],
      "name": "voterRight",
      "outputs": [],
      "stateMutability": "nonpayable",
      "type": "function"
    },
    {
      "inputs": [
        {
          "internalType": "address",
          "name": "",
          "type": "address"
        }
      ],
      "name": "voters",
      "outputs": [
        {
          "internalType": "uint256",
          "name": "voter_voterId",
          "type": "uint256"
        },
        {
          "internalType": "string",
          "name": "voter_name",
          "type": "string"
        },
        {
          "internalType": "string",
          "name": "voter_image",
          "type": "string"
        },
        {
          "internalType": "address",
          "name": "voter_address",
          "type": "address"
        },
        {
          "internalType": "uint256",
          "name": "voter_allowed",
          "type": "uint256"
        },
        {
          "internalType": "bool",
          "name": "voter_voted",
          "type": "bool"
        },
        {
          "internalType": "uint256",
          "name": "voter_vote",
          "type": "uint256"
        },
        {
          "internalType": "string",
          "name": "voter_ipfs",
          "type": "string"
        }
      ],
      "stateMutability": "view",
      "type": "function"
    },
    {
      "inputs": [
        {
          "internalType": "uint256",
          "name": "",
          "type": "uint256"
        }
      ],
      "name": "votersAddress",
      "outputs": [
        {
          "internalType": "address",
          "name": "",
          "type": "address"
        }
      ],
      "stateMutability": "view",
      "type": "function"
    },
    {
      "inputs": [],
      "name": "votingOrganizer",
      "outputs": [
        {
          "internalType": "address",
          "name": "",
          "type": "address"
        }
      ],
      "stateMutability": "view",
      "type": "function"
    }
  ],
  "bytecode": "0x6080604052348015600f57600080fd5b5033600260006101000a81548173ffffffffffffffffffffffffffffffffffffffff021916908373ffffffffffffffffffffffffffffffffffffffff16021790555061250a806100606000396000f3fe608060405234801561001057600080fd5b50600436106101165760003560e01c80638fb4cd80116100a2578063b9be315211610071578063b9be31521461030a578063bca50c4d14610328578063c91ec7121461035e578063d55d73c51461037a578063f7522a83146103aa57610116565b80638fb4cd8014610261578063a3ec138d14610297578063a7388967146102ce578063b28d92ae146102ec57610116565b806343242daa116100e957806343242daa146101a75780635cc48aa7146101d75780637831ffb3146101f55780638155f736146102255780638e9456851461024357610116565b80630121b93f1461011b5780630361419e1461013757806305ad45a4146101535780633477ee2e14610171575b600080fd5b610135600480360381019061013091906116d7565b6103c8565b005b610151600480360381019061014c91906118a8565b610562565b005b61015b610806565b6040516101689190611972565b60405180910390f35b61018b600480360381019061018691906116d7565b610813565b60405161019e9796959493929190611a1b565b60405180910390f35b6101c160048036038101906101bc91906116d7565b610a95565b6040516101ce9190611aa6565b60405180910390f35b6101df610ad4565b6040516101ec9190611aa6565b60405180910390f35b61020f600480360381019061020a91906116d7565b610afa565b60405161021c9190611aa6565b60405180910390f35b61022d610b39565b60405161023a9190611b7f565b60405180910390f35b61024b610bc7565b6040516102589190611b7f565b60405180910390f35b61027b60048036038101906102769190611ba1565b610c55565b60405161028e9796959493929190611be9565b60405180910390f35b6102b160048036038101906102ac9190611ba1565b610eaf565b6040516102c5989796959493929190611c6d565b60405180910390f35b6102d66110bc565b6040516102e39190611972565b60405180910390f35b6102f46110c8565b6040516103019190611b7f565b60405180910390f35b610312611156565b60405161031f9190611972565b60405180910390f35b610342600480360381019061033d91906116d7565b611162565b6040516103559796959493929190611d00565b60405180910390f35b61037860048036038101906103739190611d8b565b61140e565b005b610394600480360381019061038f91906116d7565b61161d565b6040516103a19190611aa6565b60405180910390f35b6103b261165c565b6040516103bf9190611972565b60405180910390f35b6000600760003373ffffffffffffffffffffffffffffffffffffffff1673ffffffffffffffffffffffffffffffffffffffff16815260200190815260200160002090508060050160009054906101000a900460ff161561045d576040517f08c379a000000000000000000000000000000000000000000000000000000000815260040161045490611ec2565b60405180910390fd5b60008160040154036104a4576040517f08c379a000000000000000000000000000000000000000000000000000000000815260040161049b90611f2e565b60405180910390fd5b60018160050160006101000a81548160ff0219169083151502179055508181600601819055506005339080600181540180825580915050600190039060005260206000200160009091909190916101000a81548173ffffffffffffffffffffffffffffffffffffffff021916908373ffffffffffffffffffffffffffffffffffffffff16021790555080600401546004600084815260200190815260200160002060040160008282546105579190611f7d565b925050819055505050565b3373ffffffffffffffffffffffffffffffffffffffff16600260009054906101000a900473ffffffffffffffffffffffffffffffffffffffff1673ffffffffffffffffffffffffffffffffffffffff16146105f2576040517f08c379a00000000000000000000000000000000000000000000000000000000081526004016105e990611ffd565b60405180910390fd5b60006105fe6000611669565b90506000600760008773ffffffffffffffffffffffffffffffffffffffff1673ffffffffffffffffffffffffffffffffffffffff1681526020019081526020016000209050600081600401541461068a576040517f08c379a000000000000000000000000000000000000000000000000000000000815260040161068190612069565b60405180910390fd5b60018160040181905550848160010190816106a59190612295565b50838160020190816106b79190612295565b50858160030160006101000a81548173ffffffffffffffffffffffffffffffffffffffff021916908373ffffffffffffffffffffffffffffffffffffffff1602179055508181600001819055506103e8816006018190555060008160050160006101000a81548160ff0219169083151502179055508281600701908161073d9190612295565b506006869080600181540180825580915050600190039060005260206000200160009091909190916101000a81548173ffffffffffffffffffffffffffffffffffffffff021916908373ffffffffffffffffffffffffffffffffffffffff160217905550817ff5f39971dd62d9929e3a9feaa6bb77fe7c7da0001babff8a65a7e51ad0201c1986868985600401548660050160009054906101000a900460ff1687600601548a6040516107f69796959493929190612367565b60405180910390a2505050505050565b6000600680549050905090565b600460205280600052604060002060009150905080600001549080600101805461083c906120b8565b80601f0160208091040260200160405190810160405280929190818152602001828054610868906120b8565b80156108b55780601f1061088a576101008083540402835291602001916108b5565b820191906000526020600020905b81548152906001019060200180831161089857829003601f168201915b5050505050908060020180546108ca906120b8565b80601f01602080910402602001604051908101604052809291908181526020018280546108f6906120b8565b80156109435780601f1061091857610100808354040283529160200191610943565b820191906000526020600020905b81548152906001019060200180831161092657829003601f168201915b505050505090806003018054610958906120b8565b80601f0160208091040260200160405190810160405280929190818152602001828054610984906120b8565b80156109d15780601f106109a6576101008083540402835291602001916109d1565b820191906000526020600020905b8154815290600101906020018083116109b457829003601f168201915b5050505050908060040154908060050160009054906101000a900473ffffffffffffffffffffffffffffffffffffffff1690806006018054610a12906120b8565b80601f0160208091040260200160405190810160405280929190818152602001828054610a3e906120b8565b8015610a8b5780601f10610a6057610100808354040283529160200191610a8b565b820191906000526020600020905b815481529060010190602001808311610a6e57829003601f168201915b5050505050905087565b60068181548110610aa557600080fd5b906000526020600020016000915054906101000a900473ffffffffffffffffffffffffffffffffffffffff1681565b600260009054906101000a900473ffffffffffffffffffffffffffffffffffffffff1681565b60058181548110610b0a57600080fd5b906000526020600020016000915054906101000a900473ffffffffffffffffffffffffffffffffffffffff1681565b60606003805480602002602001604051908101604052809291908181526020018280548015610bbd57602002820191906000526020600020905b8160009054906101000a900473ffffffffffffffffffffffffffffffffffffffff1673ffffffffffffffffffffffffffffffffffffffff1681526020019060010190808311610b73575b5050505050905090565b60606005805480602002602001604051908101604052809291908181526020018280548015610c4b57602002820191906000526020600020905b8160009054906101000a900473ffffffffffffffffffffffffffffffffffffffff1673ffffffffffffffffffffffffffffffffffffffff1681526020019060010190808311610c01575b5050505050905090565b6000606080600060606000806000600760008a73ffffffffffffffffffffffffffffffffffffffff1673ffffffffffffffffffffffffffffffffffffffff1681526020019081526020016000209050806000015481600101826002018360030160009054906101000a900473ffffffffffffffffffffffffffffffffffffffff168460070185600401548660050160009054906101000a900460ff16858054610cfd906120b8565b80601f0160208091040260200160405190810160405280929190818152602001828054610d29906120b8565b8015610d765780601f10610d4b57610100808354040283529160200191610d76565b820191906000526020600020905b815481529060010190602001808311610d5957829003601f168201915b50505050509550848054610d89906120b8565b80601f0160208091040260200160405190810160405280929190818152602001828054610db5906120b8565b8015610e025780601f10610dd757610100808354040283529160200191610e02565b820191906000526020600020905b815481529060010190602001808311610de557829003601f168201915b50505050509450828054610e15906120b8565b80601f0160208091040260200160405190810160405280929190818152602001828054610e41906120b8565b8015610e8e5780601f10610e6357610100808354040283529160200191610e8e565b820191906000526020600020905b815481529060010190602001808311610e7157829003601f168201915b50505050509250975097509750975097509750975050919395979092949650565b6007602052806000526040600020600091509050806000015490806001018054610ed8906120b8565b80601f0160208091040260200160405190810160405280929190818152602001828054610f04906120b8565b8015610f515780601f10610f2657610100808354040283529160200191610f51565b820191906000526020600020905b815481529060010190602001808311610f3457829003601f168201915b505050505090806002018054610f66906120b8565b80601f0160208091040260200160405190810160405280929190818152602001828054610f92906120b8565b8015610fdf5780601f10610fb457610100808354040283529160200191610fdf565b820191906000526020600020905b815481529060010190602001808311610fc257829003601f168201915b5050505050908060030160009054906101000a900473ffffffffffffffffffffffffffffffffffffffff16908060040154908060050160009054906101000a900460ff1690806006015490806007018054611039906120b8565b80601f0160208091040260200160405190810160405280929190818152602001828054611065906120b8565b80156110b25780601f10611087576101008083540402835291602001916110b2565b820191906000526020600020905b81548152906001019060200180831161109557829003601f168201915b5050505050905088565b60018060000154905081565b6060600680548060200260200160405190810160405280929190818152602001828054801561114c57602002820191906000526020600020905b8160009054906101000a900473ffffffffffffffffffffffffffffffffffffffff1673ffffffffffffffffffffffffffffffffffffffff1681526020019060010190808311611102575b5050505050905090565b60008060000154905081565b6060806000606060006060600080600460008a8152602001908152602001600020905080600101816002018260000154836003018460040154856006018660050160009054906101000a900473ffffffffffffffffffffffffffffffffffffffff168680546111d0906120b8565b80601f01602080910402602001604051908101604052809291908181526020018280546111fc906120b8565b80156112495780601f1061121e57610100808354040283529160200191611249565b820191906000526020600020905b81548152906001019060200180831161122c57829003601f168201915b5050505050965085805461125c906120b8565b80601f0160208091040260200160405190810160405280929190818152602001828054611288906120b8565b80156112d55780601f106112aa576101008083540402835291602001916112d5565b820191906000526020600020905b8154815290600101906020018083116112b857829003601f168201915b505050505095508380546112e8906120b8565b80601f0160208091040260200160405190810160405280929190818152602001828054611314906120b8565b80156113615780601f1061133657610100808354040283529160200191611361565b820191906000526020600020905b81548152906001019060200180831161134457829003601f168201915b50505050509350818054611374906120b8565b80601f01602080910402602001604051908101604052809291908181526020018280546113a0906120b8565b80156113ed5780601f106113c2576101008083540402835291602001916113ed565b820191906000526020600020905b8154815290600101906020018083116113d057829003601f168201915b50505050509150975097509750975097509750975050919395979092949650565b3373ffffffffffffffffffffffffffffffffffffffff16600260009054906101000a900473ffffffffffffffffffffffffffffffffffffffff1673ffffffffffffffffffffffffffffffffffffffff161461149e576040517f08c379a000000000000000000000000000000000000000000000000000000000815260040161149590612437565b60405180910390fd5b6114a86001611677565b60006114b46001611669565b90506000600460008381526020019081526020016000209050858160010190816114de9190612295565b50848160020190816114f09190612295565b508181600001819055508381600301908161150b9190612295565b5060008160040181905550868160050160006101000a81548173ffffffffffffffffffffffffffffffffffffffff021916908373ffffffffffffffffffffffffffffffffffffffff1602179055508281600601908161156a9190612295565b506003879080600181540180825580915050600190039060005260206000200160009091909190916101000a81548173ffffffffffffffffffffffffffffffffffffffff021916908373ffffffffffffffffffffffffffffffffffffffff160217905550817fd297f12b256bb8485a6013fb5e302017018123e99a0ebb20756c09e1707b4b9087878785600401548c8960405161160c96959493929190612457565b60405180910390a250505050505050565b6003818154811061162d57600080fd5b906000526020600020016000915054906101000a900473ffffffffffffffffffffffffffffffffffffffff1681565b6000600380549050905090565b600081600001549050919050565b6001816000016000828254019250508190555050565b6000604051905090565b600080fd5b600080fd5b6000819050919050565b6116b4816116a1565b81146116bf57600080fd5b50565b6000813590506116d1816116ab565b92915050565b6000602082840312156116ed576116ec611697565b5b60006116fb848285016116c2565b91505092915050565b600073ffffffffffffffffffffffffffffffffffffffff82169050919050565b600061172f82611704565b9050919050565b61173f81611724565b811461174a57600080fd5b50565b60008135905061175c81611736565b92915050565b600080fd5b600080fd5b6000601f19601f8301169050919050565b7f4e487b7100000000000000000000000000000000000000000000000000000000600052604160045260246000fd5b6117b58261176c565b810181811067ffffffffffffffff821117156117d4576117d361177d565b5b80604052505050565b60006117e761168d565b90506117f382826117ac565b919050565b600067ffffffffffffffff8211156118135761181261177d565b5b61181c8261176c565b9050602081019050919050565b82818337600083830152505050565b600061184b611846846117f8565b6117dd565b90508281526020810184848401111561186757611866611767565b5b611872848285611829565b509392505050565b600082601f83011261188f5761188e611762565b5b813561189f848260208601611838565b91505092915050565b600080600080608085870312156118c2576118c1611697565b5b60006118d08782880161174d565b945050602085013567ffffffffffffffff8111156118f1576118f061169c565b5b6118fd8782880161187a565b935050604085013567ffffffffffffffff81111561191e5761191d61169c565b5b61192a8782880161187a565b925050606085013567ffffffffffffffff81111561194b5761194a61169c565b5b6119578782880161187a565b91505092959194509250565b61196c816116a1565b82525050565b60006020820190506119876000830184611963565b92915050565b600081519050919050565b600082825260208201905092915050565b60005b838110156119c75780820151818401526020810190506119ac565b60008484015250505050565b60006119de8261198d565b6119e88185611998565b93506119f88185602086016119a9565b611a018161176c565b840191505092915050565b611a1581611724565b82525050565b600060e082019050611a30600083018a611963565b8181036020830152611a4281896119d3565b90508181036040830152611a5681886119d3565b90508181036060830152611a6a81876119d3565b9050611a796080830186611963565b611a8660a0830185611a0c565b81810360c0830152611a9881846119d3565b905098975050505050505050565b6000602082019050611abb6000830184611a0c565b92915050565b600081519050919050565b600082825260208201905092915050565b6000819050602082019050919050565b611af681611724565b82525050565b6000611b088383611aed565b60208301905092915050565b6000602082019050919050565b6000611b2c82611ac1565b611b368185611acc565b9350611b4183611add565b8060005b83811015611b72578151611b598882611afc565b9750611b6483611b14565b925050600181019050611b45565b5085935050505092915050565b60006020820190508181036000830152611b998184611b21565b905092915050565b600060208284031215611bb757611bb6611697565b5b6000611bc58482850161174d565b91505092915050565b60008115159050919050565b611be381611bce565b82525050565b600060e082019050611bfe600083018a611963565b8181036020830152611c1081896119d3565b90508181036040830152611c2481886119d3565b9050611c336060830187611a0c565b8181036080830152611c4581866119d3565b9050611c5460a0830185611963565b611c6160c0830184611bda565b98975050505050505050565b600061010082019050611c83600083018b611963565b8181036020830152611c95818a6119d3565b90508181036040830152611ca981896119d3565b9050611cb86060830188611a0c565b611cc56080830187611963565b611cd260a0830186611bda565b611cdf60c0830185611963565b81810360e0830152611cf181846119d3565b90509998505050505050505050565b600060e0820190508181036000830152611d1a818a6119d3565b90508181036020830152611d2e81896119d3565b9050611d3d6040830188611963565b8181036060830152611d4f81876119d3565b9050611d5e6080830186611963565b81810360a0830152611d7081856119d3565b9050611d7f60c0830184611a0c565b98975050505050505050565b600080600080600060a08688031215611da757611da6611697565b5b6000611db58882890161174d565b955050602086013567ffffffffffffffff811115611dd657611dd561169c565b5b611de28882890161187a565b945050604086013567ffffffffffffffff811115611e0357611e0261169c565b5b611e0f8882890161187a565b935050606086013567ffffffffffffffff811115611e3057611e2f61169c565b5b611e3c8882890161187a565b925050608086013567ffffffffffffffff811115611e5d57611e5c61169c565b5b611e698882890161187a565b9150509295509295909350565b7f416c726561647920766f74656400000000000000000000000000000000000000600082015250565b6000611eac600d83611998565b9150611eb782611e76565b602082019050919050565b60006020820190508181036000830152611edb81611e9f565b9050919050565b7f4e6f7420616c6c6f77656420746f20766f746500000000000000000000000000600082015250565b6000611f18601383611998565b9150611f2382611ee2565b602082019050919050565b60006020820190508181036000830152611f4781611f0b565b9050919050565b7f4e487b7100000000000000000000000000000000000000000000000000000000600052601160045260246000fd5b6000611f88826116a1565b9150611f93836116a1565b9250828201905080821115611fab57611faa611f4e565b5b92915050565b7f4f6e6c79206f7267616e697a657220616c6c6f77656400000000000000000000600082015250565b6000611fe7601683611998565b9150611ff282611fb1565b602082019050919050565b6000602082019050818103600083015261201681611fda565b9050919050565b7f566f74657220616c726561647920616c6c6f7765640000000000000000000000600082015250565b6000612053601583611998565b915061205e8261201d565b602082019050919050565b6000602082019050818103600083015261208281612046565b9050919050565b7f4e487b7100000000000000000000000000000000000000000000000000000000600052602260045260246000fd5b600060028204905060018216806120d057607f821691505b6020821081036120e3576120e2612089565b5b50919050565b60008190508160005260206000209050919050565b60006020601f8301049050919050565b600082821b905092915050565b60006008830261214b7fffffffffffffffffffffffffffffffffffffffffffffffffffffffffffffffff8261210e565b612155868361210e565b95508019841693508086168417925050509392505050565b6000819050919050565b600061219261218d612188846116a1565b61216d565b6116a1565b9050919050565b6000819050919050565b6121ac83612177565b6121c06121b882612199565b84845461211b565b825550505050565b600090565b6121d56121c8565b6121e08184846121a3565b505050565b5b81811015612204576121f96000826121cd565b6001810190506121e6565b5050565b601f8211156122495761221a816120e9565b612223846120fe565b81016020851015612232578190505b61224661223e856120fe565b8301826121e5565b50505b505050565b600082821c905092915050565b600061226c6000198460080261224e565b1980831691505092915050565b6000612285838361225b565b9150826002028217905092915050565b61229e8261198d565b67ffffffffffffffff8111156122b7576122b661177d565b5b6122c182546120b8565b6122cc828285612208565b600060209050601f8311600181146122ff57600084156122ed578287015190505b6122f78582612279565b86555061235f565b601f19841661230d866120e9565b60005b8281101561233557848901518255600182019150602085019450602081019050612310565b86831015612352578489015161234e601f89168261225b565b8355505b6001600288020188555050505b505050505050565b600060e0820190508181036000830152612381818a6119d3565b9050818103602083015261239581896119d3565b90506123a46040830188611a0c565b6123b16060830187611963565b6123be6080830186611bda565b6123cb60a0830185611963565b81810360c08301526123dd81846119d3565b905098975050505050505050565b7f4f6e6c79206f7267616e697a65722063616e207365742063616e646964617465600082015250565b6000612421602083611998565b915061242c826123eb565b602082019050919050565b6000602082019050818103600083015261245081612414565b9050919050565b600060c082019050818103600083015261247181896119d3565b9050818103602083015261248581886119d3565b9050818103604083015261249981876119d3565b90506124a86060830186611963565b6124b56080830185611a0c565b81810360a08301526124c781846119d3565b905097965050505050505056fea264697066735822122004276c32e8900d5aa4f36825662dac514d69bb6fa911f1e519ccbdca3b2f669464736f6c634300081c0033",
  "linkReferences": {},
  "deployedLinkReferences": {}
}